{
  "_format": "hh-sol-artifact-1",
  "contractName": "Data",
  "sourceName": "contracts/Data.sol",
  "abi": [
    {
      "inputs": [
        {
          "internalType": "string",
          "name": "_data",
          "type": "string"
        }
      ],
      "stateMutability": "nonpayable",
      "type": "constructor"
    },
    {
      "inputs": [],
      "name": "database",
      "outputs": [
        {
          "internalType": "string",
          "name": "data",
          "type": "string"
        }
      ],
      "stateMutability": "view",
      "type": "function"
    },
    {
      "inputs": [],
      "name": "getData",
      "outputs": [
        {
          "internalType": "string",
          "name": "",
          "type": "string"
        }
      ],
      "stateMutability": "view",
      "type": "function"
    },
    {
      "inputs": [
        {
          "internalType": "string",
          "name": "_data",
          "type": "string"
        }
      ],
      "name": "setData",
      "outputs": [],
      "stateMutability": "nonpayable",
      "type": "function"
    }
  ],
  "bytecode": "0x608060405234801561001057600080fd5b50604051610e68380380610e68833981810160405281019061003291906101d6565b6040518060200160405280828152506000808201518160000190816100579190610440565b5090505050610512565b6000604051905090565b600080fd5b600080fd5b600080fd5b600080fd5b6000601f19601f8301169050919050565b7f4e487b7100000000000000000000000000000000000000000000000000000000600052604160045260246000fd5b6100c88261007f565b810181811067ffffffffffffffff821117156100e7576100e6610090565b5b80604052505050565b60006100fa610061565b905061010682826100bf565b919050565b600067ffffffffffffffff82111561012657610125610090565b5b61012f8261007f565b9050602081019050919050565b60005b8381101561015a57808201518184015260208101905061013f565b60008484015250505050565b60006101796101748461010b565b6100f0565b9050828152602081018484840111156101955761019461007a565b5b6101a084828561013c565b509392505050565b600082601f8301126101bd576101bc610075565b5b81516101cd848260208601610166565b91505092915050565b6000602082840312156101ec576101eb61006b565b5b600082015167ffffffffffffffff81111561020a57610209610070565b5b610216848285016101a8565b91505092915050565b600081519050919050565b7f4e487b7100000000000000000000000000000000000000000000000000000000600052602260045260246000fd5b6000600282049050600182168061027157607f821691505b6020821081036102845761028361022a565b5b50919050565b60008190508160005260206000209050919050565b60006020601f8301049050919050565b600082821b905092915050565b6000600883026102ec7fffffffffffffffffffffffffffffffffffffffffffffffffffffffffffffffff826102af565b6102f686836102af565b95508019841693508086168417925050509392505050565b6000819050919050565b6000819050919050565b600061033d6103386103338461030e565b610318565b61030e565b9050919050565b6000819050919050565b61035783610322565b61036b61036382610344565b8484546102bc565b825550505050565b600090565b610380610373565b61038b81848461034e565b505050565b5b818110156103af576103a4600082610378565b600181019050610391565b5050565b601f8211156103f4576103c58161028a565b6103ce8461029f565b810160208510156103dd578190505b6103f16103e98561029f565b830182610390565b50505b505050565b600082821c905092915050565b6000610417600019846008026103f9565b1980831691505092915050565b60006104308383610406565b9150826002028217905092915050565b6104498261021f565b67ffffffffffffffff81111561046257610461610090565b5b61046c8254610259565b6104778282856103b3565b600060209050601f8311600181146104aa5760008415610498578287015190505b6104a28582610424565b86555061050a565b601f1984166104b88661028a565b60005b828110156104e0578489015182556001820191506020850194506020810190506104bb565b868310156104fd57848901516104f9601f891682610406565b8355505b6001600288020188555050505b505050505050565b610947806105216000396000f3fe608060405234801561001057600080fd5b50600436106100415760003560e01c80633bc5de301461004657806347064d6a14610064578063713b563f14610080575b600080fd5b61004e61009e565b60405161005b91906103d5565b60405180910390f35b61007e60048036038101906100799190610540565b610171565b005b6100886101c5565b60405161009591906103d5565b60405180910390f35b60606100df6040518060400160405280600e81526020017f52657475726e696e67204461746100000000000000000000000000000000000081525033610259565b6000800180546100ee906105b8565b80601f016020809104026020016040519081016040528092919081815260200182805461011a906105b8565b80156101675780601f1061013c57610100808354040283529160200191610167565b820191906000526020600020905b81548152906001019060200180831161014a57829003601f168201915b5050505050905090565b6101b06040518060400160405280600c81526020017f53657474696e672044617461000000000000000000000000000000000000000081525033610259565b806000800190816101c1919061079f565b5050565b60008060000180546101d6906105b8565b80601f0160208091040260200160405190810160405280929190818152602001828054610202906105b8565b801561024f5780601f106102245761010080835404028352916020019161024f565b820191906000526020600020905b81548152906001019060200180831161023257829003601f168201915b5050505050905081565b6102f1828260405160240161026f9291906108b2565b6040516020818303038152906040527f319af333000000000000000000000000000000000000000000000000000000007bffffffffffffffffffffffffffffffffffffffffffffffffffffffff19166020820180517bffffffffffffffffffffffffffffffffffffffffffffffffffffffff83818316178352505050506102f5565b5050565b61030c8161030461030f610330565b63ffffffff16565b50565b60006a636f6e736f6c652e6c6f679050600080835160208501845afa505050565b61033b819050919050565b6103436108e2565b565b600081519050919050565b600082825260208201905092915050565b60005b8381101561037f578082015181840152602081019050610364565b60008484015250505050565b6000601f19601f8301169050919050565b60006103a782610345565b6103b18185610350565b93506103c1818560208601610361565b6103ca8161038b565b840191505092915050565b600060208201905081810360008301526103ef818461039c565b905092915050565b6000604051905090565b600080fd5b600080fd5b600080fd5b600080fd5b7f4e487b7100000000000000000000000000000000000000000000000000000000600052604160045260246000fd5b61044d8261038b565b810181811067ffffffffffffffff8211171561046c5761046b610415565b5b80604052505050565b600061047f6103f7565b905061048b8282610444565b919050565b600067ffffffffffffffff8211156104ab576104aa610415565b5b6104b48261038b565b9050602081019050919050565b82818337600083830152505050565b60006104e36104de84610490565b610475565b9050828152602081018484840111156104ff576104fe610410565b5b61050a8482856104c1565b509392505050565b600082601f8301126105275761052661040b565b5b81356105378482602086016104d0565b91505092915050565b60006020828403121561055657610555610401565b5b600082013567ffffffffffffffff81111561057457610573610406565b5b61058084828501610512565b91505092915050565b7f4e487b7100000000000000000000000000000000000000000000000000000000600052602260045260246000fd5b600060028204905060018216806105d057607f821691505b6020821081036105e3576105e2610589565b5b50919050565b60008190508160005260206000209050919050565b60006020601f8301049050919050565b600082821b905092915050565b60006008830261064b7fffffffffffffffffffffffffffffffffffffffffffffffffffffffffffffffff8261060e565b610655868361060e565b95508019841693508086168417925050509392505050565b6000819050919050565b6000819050919050565b600061069c6106976106928461066d565b610677565b61066d565b9050919050565b6000819050919050565b6106b683610681565b6106ca6106c2826106a3565b84845461061b565b825550505050565b600090565b6106df6106d2565b6106ea8184846106ad565b505050565b5b8181101561070e576107036000826106d7565b6001810190506106f0565b5050565b601f82111561075357610724816105e9565b61072d846105fe565b8101602085101561073c578190505b610750610748856105fe565b8301826106ef565b50505b505050565b600082821c905092915050565b600061077660001984600802610758565b1980831691505092915050565b600061078f8383610765565b9150826002028217905092915050565b6107a882610345565b67ffffffffffffffff8111156107c1576107c0610415565b5b6107cb82546105b8565b6107d6828285610712565b600060209050601f83116001811461080957600084156107f7578287015190505b6108018582610783565b865550610869565b601f198416610817866105e9565b60005b8281101561083f5784890151825560018201915060208501945060208101905061081a565b8683101561085c5784890151610858601f891682610765565b8355505b6001600288020188555050505b505050505050565b600073ffffffffffffffffffffffffffffffffffffffff82169050919050565b600061089c82610871565b9050919050565b6108ac81610891565b82525050565b600060408201905081810360008301526108cc818561039c565b90506108db60208301846108a3565b9392505050565b7f4e487b7100000000000000000000000000000000000000000000000000000000600052605160045260246000fdfea2646970667358221220f48618273f080446c32a0a1ccfeda0f13886306fa2b0c971e7656d386067755964736f6c634300081b0033",
  "linkReferences": {},
  "deployedLinkReferences": {}
}